:020000040000FA
:0400000055EF00F0C8
:060008005D8208ED2CF002
:100018005D80D8CFD5F0E8CFD6F0E0CFD7F0E1CFEC
:10002800D8F0E2CFD9F0D9CFDAF0DACFDBF0F3CFDE
:10003800DCF0F4CFDDF0F6CFDEF0F7CFDFF0F8CF6D
:10004800E0F0F5CFE1F0A1A02CEF00F02EEF00F0EA
:1000580030EF00F002EC16F0F2A435EF00F037EFC5
:1000680000F039EF00F09BEC1BF0E1C0F5FFE0C0B9
:10007800F8FFDFC0F7FFDEC0F6FFDDC0F4FFDCC02D
:10008800F3FFDBC0DAFFDAC0D9FFD9C0E2FFD8C07E
:10009800E1FFD7C0E0FFD6C0E8FFD5C0D8FF5D902C
:0600A8001000C6EF27F076
:100D00000068685800686864006868690068686E10
:100D10000068686F0068687500686878007A580035
:100D20007A64007A69007A6E007A6F007A75007AC8
:100D300078002564000047C0D9FF48C0DAFFDECF45
:100D4000F6FFDDCFF7FF0800F550250AD8A4ABEF7A
:100D500006F0ADEF06F0A4EF0FF047C0D9FF48C092
:100D6000DAFFDE2A000EDD22000E0001E56F000E24
:100D7000E46FE4C05BF0E5C05CF0E669E769000E93
:100D8000636F000E626F0BEF07F05B8047C0D9FF07
:100D900048C0DAFFDE2A000EDD220BEF07F05B828F
:100DA000C6EF06F05B84C6EF06F05B86C6EF06F082
:100DB0005B88C6EF06F0000E636F010E626F0BEFEB
:100DC00007F047C0D9FF48C0DAFFDECFF6FFDDCF1E
:100DD000F7FF0800F5504B6E4C6A4C50000AD8B42F
:100DE000F4EF06F0DBEF06F04B50200AD8B4D5EF55
:100DF00006F0030AD8B4D8EF06F0080AD8B4D2EF48
:100E000006F0060AD8B4C5EF06F01D0AD8B4CFEF35
:100E100006F0DBEF06F062516311D8B412EF07F071
:100E200014EF07F0E1EF06F05BA019EF07F01BEFFE
:100E300007F01CEF07F05B9247C0D9FF48C0DAFF0C
:100E4000DECFF6FFDDCFF7FF0800F5502A0AD8A461
:100E50002CEF07F02EEF07F057EF07F047C0D9FF50
:100E600048C0DAFFDE2A000EDD2249C0D9FF4AC0A1
:100E7000DAFFDFCF4BF0020EDE26DFCF4CF0000EA4
:100E8000DD224BC0D9FF4CC0DAFFDECFE4F0DDCF6E
:100E9000E5F0E5BF50EF07F04EEF07F09BEF07F0EE
:100EA0005B80E46DE51FD8B0E52B9BEF07F047C0F2
:100EB000D9FF48C0DAFFDECF0AF0DDCF0BF08EECB1
:100EC00020F00AC0E4F00BC0E5F06EEF07F047C079
:100ED000D9FF48C0DAFFDE2A000EDD22D00E4B6EAD
:100EE000FF0E4C6E47C0D9FF48C0DAFFDECFF6FFD9
:100EF000DDCFF7FF0800F5504D6E4E6A4B504D2682
:100F00004C504E224E500AE10A0E4D5CD8A08BEF99
:100F100007F08EEF07F0010E8FEF07F0000E0001D3
:100F2000646F656B64516511D8A499EF07F09BEF6E
:100F300007F067EF07F047C0D9FF48C0DAFFDECF00
:100F4000F6FFDDCFF7FF0800F5502E0AD8A4ABEF6F
:100F500007F0ADEF07F02BEF08F0000EE76F000E83
:100F6000E66F47C0D9FF48C0DAFFDE2A000EDD2257
:100F700047C0D9FF48C0DAFFDECFF6FFDDCFF7FF6D
:100F80000800F5502A0AD8A4C8EF07F0CAEF07F006
:100F9000E7EF07F047C0D9FF48C0DAFFDE2A000EAE
:100FA000DD2249C0D9FF4AC0DAFFDFCF4BF0020E85
:100FB000DE26DFCF4CF0000EDD224BC0D9FF4CC047
:100FC000DAFFDECFE6F0DDCFE7F02BEF08F047C029
:100FD000D9FF48C0DAFFDECF0AF0DDCF0BF08EEC90
:100FE00020F00AC0E6F00BC0E7F0FEEF07F047C0C4
:100FF000D9FF48C0DAFFDE2A000EDD22D00E4B6E8C
:10100000FF0E4C6E47C0D9FF48C0DAFFDECFF6FFB7
:10101000DDCFF7FF0800F5504D6E4E6A4B504D2660
:101020004C504E224E500AE10A0E4D5CD8A01BEFE8
:1010300008F01EEF08F0010E1FEF08F0000E00018F
:10104000666F676B66516711D8A429EF08F02BEF24
:1010500008F0F7EF07F047C0D9FF48C0DAFFDECF4E
:10106000F6FFDDCFF7FF0800F550630AD8A43BEF89
:1010700008F03DEF08F064EF08F047C0D9FF48C022
:10108000DAFFDE2A000EDD2249C0D9FF4AC0DAFFAE
:10109000DFCF4BF0020EDE26DFCF4CF0000EDD225C
:1010A0004BC0D9FF4CC0DAFFDF50726F45C01EF055
:1010B00046C01FF072C020F0E5EC28F01EC045F0DD
:1010C0001FC046F0BFEF0FF047C0D9FF48C0DAFF9E
:1010D000DECF03F0DDCF04F0050E056E0D0E066EBB
:1010E000000E086E030E076E13EC25F0035004107B
:1010F000D8B47DEF08F07FEF08F09AEF08F047C012
:10110000D9FF48C0DAFFDECF03F0DDCF04F0090ECF
:10111000056E0D0E066E000E086E030E076E13ECC4
:1011200025F003500410D8A498EF08F09AEF08F0C7
:10113000DBEF08F0030E47C0D9FF48C0DAFFDE2618
:10114000000EDD2249C0D9FF4AC0DAFFDFCF4BF0E5
:10115000020EDE26DFCF4CF0000EDD224BC0D9FFA1
:101160004CC0DAFFDF500001686F000E68BFFF0E51
:10117000696F6A6F6B6F6C6F6D6F6E6F6F6F45C06D
:101180001EF046C01FF068C020F069C021F06AC0A0
:1011900022F06BC023F06CC024F06DC025F06EC04F
:1011A00026F06FC027F0A5EC17F01EC045F01FC059
:1011B00046F0BFEF0FF047C0D9FF48C0DAFFDECFDF
:1011C00003F0DDCF04F0060E056E0D0E066E000E68
:1011D000086E020E076E13EC25F003500410D8B40D
:1011E000F4EF08F0F6EF08F011EF09F047C0D9FF6F
:1011F00048C0DAFFDECF03F0DDCF04F00A0E056E43
:101200000D0E066E000E086E020E076E13EC25F032
:1012100003500410D8A40FEF09F011EF09F039EFD3
:1012200009F0020E47C0D9FF48C0DAFFDE26000EE3
:10123000DD2249C0D9FF4AC0DAFFDFCF4BF0020EF2
:10124000DE26DFCF4CF0000EDD224BC0D9FF4CC0B4
:10125000DAFFDECF68F0DDCF69F00001000E69BF74
:10126000FF0E6A6F6B6F6C6F6D6F6E6F6F6FBFEF9E
:1012700008F047C0D9FF48C0DAFFDECFF6FFDDCF68
:10128000F7FF0800F550640AD8B449EF09F04BEFB6
:1012900009F05DEF09F047C0D9FF48C0DAFFDECFA3
:1012A000F6FFDDCFF7FF0800F550690AD8A45BEF21
:1012B00009F05DEF09F084EF09F047C0D9FF48C09D
:1012C000DAFFDE2A000EDD2249C0D9FF4AC0DAFF6C
:1012D000DFCF4BF0020EDE26DFCF4CF0000EDD221A
:1012E0004BC0D9FF4CC0DAFFDECF68F0DDCF69F02C
:1012F0000001000E69BFFF0E6A6F6B6F6C6F6D6F40
:101300006E6F6F6FBFEF08F047C0D9FF48C0DAFFBC
:10131000DECF03F0DDCF04F0200E056E0D0E066E5D
:10132000000E086E020E076E13EC25F00350041039
:10133000D8B49DEF09F09FEF09F0BAEF09F047C06C
:10134000D9FF48C0DAFFDECF03F0DDCF04F0230E73
:10135000056E0D0E066E000E086E020E076E13EC83
:1013600025F003500410D8A4B8EF09F0BAEF09F043
:10137000E3EF09F0020E47C0D9FF48C0DAFFDE26CE
:10138000000EDD2249C0D9FF4AC0DAFFDFCF4BF0A3
:10139000020EDE26DFCF4CF0000EDD224BC0D9FF5F
:1013A0004CC0DAFFDECF4DF0DDCF4EF04DC068F01F
:1013B0004EC069F000016A6B6B6B6C6B6D6B6E6B92
:1013C0006F6BBFEF08F047C0D9FF48C0DAFFDECF30
:1013D00003F0DDCF04F0110E056E0D0E066E000E4B
:1013E000086E030E076E13EC25F003500410D8A40A
:1013F000FCEF09F0FEEF09F03EEF0AF0030E47C0E4
:10140000D9FF48C0DAFFDE26000EDD2249C0D9FF31
:101410004AC0DAFFDFCF4BF0020EDE26DFCF4CF002
:10142000000EDD224BC0D9FF4CC0DAFFDF504D6EFD
:101430004D500001736F746B756B766B776B786BC7
:10144000796B7A6B45C01EF046C01FF073C020F068
:1014500074C021F075C022F076C023F077C024F06C
:1014600078C025F079C026F07AC027F0BEEC1EF0D7
:101470001EC045F01FC046F0BFEF0FF047C0D9FFB8
:1014800048C0DAFFDECF03F0DDCF04F0120E056EA8
:101490000D0E066E000E086E020E076E13EC25F0A0
:1014A00003500410D8A457EF0AF059EF0AF082EF66
:1014B0000AF0020E47C0D9FF48C0DAFFDE26000E50
:1014C000DD2249C0D9FF4AC0DAFFDFCF4BF0020E60
:1014D000DE26DFCF4CF0000EDD224BC0D9FF4CC022
:1014E000DAFFDECF4DF0DDCF4EF04DC073F04EC0D1
:1014F00074F00001756B766B776B786B796B7A6B38
:1015000022EF0AF047C0D9FF48C0DAFFDECFF6FF6E
:10151000DDCFF7FF0800F5506F0AD8A492EF0AF06C
:1015200094EF0AF0BCEF0AF047C0D9FF48C0DAFFD9
:10153000DE2A000EDD2249C0D9FF4AC0DAFFDFCF24
:101540004BF0020EDE26DFCF4CF0000EDD224BC04A
:10155000D9FF4CC0DAFFDECF4DF0DDCF4EF04DC0ED
:1015600073F04EC074F00001756B766B776B786B1F
:10157000796B7A6B22EF0AF047C0D9FF48C0DAFFD7
:10158000DECF03F0DDCF04F0290E056E0D0E066EE2
:10159000000E086E020E076E13EC25F003500410C7
:1015A000D8A4D5EF0AF0D7EF0AF000EF0BF0020E47
:1015B00047C0D9FF48C0DAFFDE26000EDD2249C051
:1015C000D9FF4AC0DAFFDFCF4BF0020EDE26DFCFB5
:1015D0004CF0000EDD224BC0D9FF4CC0DAFFDECF4D
:1015E0004DF0DDCF4EF04DC073F04EC074F00001F1
:1015F000756B766B776B786B796B7A6B22EF0AF091
:1016000047C0D9FF48C0DAFFDECF03F0DDCF04F0DA
:101610000D0E056E0D0E066E000E086E030E076EA3
:1016200013EC25F003500410D8A419EF0BF01BEFB6
:101630000BF043EF0BF0030E47C0D9FF48C0DAFFB1
:10164000DE26000EDD2249C0D9FF4AC0DAFFDFCF17
:101650004BF0020EDE26DFCF4CF0000EDD224BC039
:10166000D9FF4CC0DAFFDECF70F0DDCF71F070C073
:10167000D9FF71C0DAFFE2C0DFFF000E466E000E38
:10168000456EBFEF0FF047C0D9FF48C0DAFFDECF8D
:1016900003F0DDCF04F00E0E056E0D0E066E000E8B
:1016A000086E020E076E13EC25F003500410D8A448
:1016B0005CEF0BF05EEF0BF084EF0BF0020E47C017
:1016C000D9FF48C0DAFFDE26000EDD2249C0D9FF6F
:1016D0004AC0DAFFDFCF4BF0020EDE26DFCF4CF040
:1016E000000EDD224BC0D9FF4CC0DAFFDECF70F018
:1016F000DDCF71F070C0D9FF71C0DAFFE2C0DEFF4C
:10170000E3C0DDFF3DEF0BF047C0D9FF48C0DAFF73
:10171000DECFF6FFDDCFF7FF0800F5506E0AD8A444
:1017200094EF0BF096EF0BF0BBEF0BF047C0D9FF37
:1017300048C0DAFFDE2A000EDD2249C0D9FF4AC0C8
:10174000DAFFDFCF4BF0020EDE26DFCF4CF0000ECB
:10175000DD224BC0D9FF4CC0DAFFDECF70F0DDCF09
:1017600071F070C0D9FF71C0DAFFE2C0DEFFE3C0E4
:10177000DDFF3DEF0BF047C0D9FF48C0DAFFDECFF9
:1017800003F0DDCF04F0260E056E0D0E066E000E82
:10179000086E020E076E13EC25F003500410D8A457
:1017A000D4EF0BF0D6EF0BF0FCEF0BF0020E47C0BE
:1017B000D9FF48C0DAFFDE26000EDD2249C0D9FF7E
:1017C0004AC0DAFFDFCF4BF0020EDE26DFCF4CF04F
:1017D000000EDD224BC0D9FF4CC0DAFFDECF70F027
:1017E000DDCF71F070C0D9FF71C0DAFFE2C0DEFF5B
:1017F000E3C0DDFF3DEF0BF047C0D9FF48C0DAFF83
:10180000DECFF6FFDDCFF7FF0800F550700AD8A451
:101810000CEF0CF00EEF0CF052EF0CF047C0D9FFBC
:1018200048C0DAFFDE2A000EDD2249C0D9FF4AC0D7
:10183000DAFFDFCF4BF0020EDE26DFCF4CF0000EDA
:10184000DD224BC0D9FF4CC0DAFFDECF4DF0DDCF3B
:101850004EF04DC073F04EC074F00001756B766BA6
:10186000776B786B796B7A6B45C01EF046C01FF0C2
:1018700073C020F074C021F075C022F076C023F050
:1018800077C024F078C025F079C026F07AC027F020
:10189000780E286E15EC19F01EC045F01FC046F0FA
:1018A000BFEF0FF047C0D9FF48C0DAFFDECFF6FF29
:1018B000DDCFF7FF0800F550730AD8A462EF0CF0F3
:1018C00064EF0CF08FEF0CF047C0D9FF48C0DAFF8F
:1018D000DE2A000EDD2249C0D9FF4AC0DAFFDFCF81
:1018E0004BF0020EDE26DFCF4CF0000EDD224BC0A7
:1018F000D9FF4CC0DAFFDECF60F0DDCF61F045C02C
:101900000CF046C00DF060C00EF061C00FF01AEC94
:1019100022F00CC045F00DC046F0BFEF0FF047C0FD
:10192000D9FF48C0DAFFDECF03F0DDCF04F0150E9B
:10193000056E0D0E066E000E086E030E076E13EC9C
:1019400025F003500410D8A4A8EF0CF0AAEF0CF077
:10195000EAEF0CF0030E47C0D9FF48C0DAFFDE26DD
:10196000000EDD2249C0D9FF4AC0DAFFDFCF4BF0BD
:10197000020EDE26DFCF4CF0000EDD224BC0D9FF79
:101980004CC0DAFFDF504D6E4D500001736F746B29
:10199000756B766B776B786B796B7A6B45C01EF0E5
:1019A00046C01FF073C020F074C021F075C022F053
:1019B00076C023F077C024F078C025F079C026F0F7
:1019C0007AC027F0BDEC1DF01EC045F01FC046F0E8
:1019D000BFEF0FF047C0D9FF48C0DAFFDECF03F0FA
:1019E000DDCF04F0160E056E0D0E066E000E086EAD
:1019F000020E076E13EC25F003500410D8A403EF79
:101A00000DF005EF0DF02EEF0DF0020E47C0D9FFDF
:101A100048C0DAFFDE26000EDD2249C0D9FF4AC0E9
:101A2000DAFFDFCF4BF0020EDE26DFCF4CF0000EE8
:101A3000DD224BC0D9FF4CC0DAFFDECF4DF0DDCF49
:101A40004EF04DC073F04EC074F00001756B766BB4
:101A5000776B786B796B7A6BCEEF0CF047C0D9FF60
:101A600048C0DAFFDECFF6FFDDCFF7FF0800F55004
:101A7000750AD8A43EEF0DF040EF0DF068EF0DF0C1
:101A800047C0D9FF48C0DAFFDE2A000EDD2249C078
:101A9000D9FF4AC0DAFFDFCF4BF0020EDE26DFCFE0
:101AA0004CF0000EDD224BC0D9FF4CC0DAFFDECF78
:101AB0004DF0DDCF4EF04DC073F04EC074F000011C
:101AC000756B766B776B786B796B7A6BCEEF0CF00E
:101AD00047C0D9FF48C0DAFFDECF03F0DDCF04F006
:101AE0002C0E056E0D0E066E000E086E020E076EB1
:101AF00013EC25F003500410D8A481EF0DF083EF10
:101B00000DF0ACEF0DF0020E47C0D9FF48C0DAFF70
:101B1000DE26000EDD2249C0D9FF4AC0DAFFDFCF42
:101B20004BF0020EDE26DFCF4CF0000EDD224BC064
:101B3000D9FF4CC0DAFFDECF4DF0DDCF4EF04DC007
:101B400073F04EC074F00001756B766B776B786B39
:101B5000796B7A6BCEEF0CF047C0D9FF48C0DAFF43
:101B6000DECF03F0DDCF04F0190E056E0D0E066E0C
:101B7000000E086E030E076E13EC25F003500410E0
:101B8000D8B4C5EF0DF0C7EF0DF0E2EF0DF047C090
:101B9000D9FF48C0DAFFDECF03F0DDCF04F0010E3D
:101BA000056E0D0E066E000E086E030E076E13EC2A
:101BB00025F003500410D8A4E0EF0DF0E2EF0DF093
:101BC00037EF0EF047C0D9FF48C0DAFFDECF4BF049
:101BD000DDCF4CF0020E4B26000E4C224BC0F6FF20
:101BE0004CC0F7FF0800F5CF72F0030E47C0D9FFD5
:101BF00048C0DAFFDE26000EDD2249C0D9FF4AC008
:101C0000DAFFDFCF4BF0020EDE26DFCF4CF0000E06
:101C1000DD224BC0D9FF4CC0DAFFDF504D6E4D5076
:101C20000001736F746B756B766B776B786B796B88
:101C30007A6B45C01EF046C01FF073C020F074C020
:101C400021F075C022F076C023F077C024F078C070
:101C500025F079C026F07AC027F072C028F015EC84
:101C600019F01EC045F01FC046F0BFEF0FF047C08F
:101C7000D9FF48C0DAFFDECF03F0DDCF04F01A0E43
:101C8000056E0D0E066E000E086E020E076E13EC4A
:101C900025F003500410D8B450EF0EF052EF0EF0C0
:101CA0006DEF0EF047C0D9FF48C0DAFFDECF03F07A
:101CB000DDCF04F0020E056E0D0E066E000E086EEE
:101CC000020E076E13EC25F003500410D8A46BEF3E
:101CD0000EF06DEF0EF0A9EF0EF047C0D9FF48C02F
:101CE000DAFFDECF4BF0DDCF4CF0010E4B26000EBD
:101CF0004C224BC0F6FF4CC0F7FF0800F5CF72F046
:101D0000020E47C0D9FF48C0DAFFDE26000EDD22F2
:101D100049C0D9FF4AC0DAFFDFCF4BF0020EDE2602
:101D2000DFCF4CF0000EDD224BC0D9FF4CC0DAFFF4
:101D3000DECF4DF0DDCF4EF04DC073F04EC074F0ED
:101D40000001756B766B776B786B796B7A6B19EF3B
:101D50000EF047C0D9FF48C0DAFFDECFF6FFDDCF77
:101D6000F7FF0800F550780AD8B4B9EF0EF0BBEFD2
:101D70000EF0CDEF0EF047C0D9FF48C0DAFFDECF3E
:101D8000F6FFDDCFF7FF0800F550580AD8A4CBEFD7
:101D90000EF0CDEF0EF000EF0FF047C0D9FF48C0B6
:101DA000DAFFDECFF6FFDDCFF7FF0800F5CF72F0E8
:101DB00047C0D9FF48C0DAFFDE2A000EDD2249C045
:101DC000D9FF4AC0DAFFDFCF4BF0020EDE26DFCFAD
:101DD0004CF0000EDD224BC0D9FF4CC0DAFFDECF45
:101DE0004DF0DDCF4EF04DC073F04EC074F00001E9
:101DF000756B766B776B786B796B7A6B19EF0EF08E
:101E000047C0D9FF48C0DAFFDECF03F0DDCF04F0D2
:101E10002F0E056E0D0E066E000E086E020E076E7A
:101E200013EC25F003500410D8B419EF0FF01BEF9A
:101E30000FF036EF0FF047C0D9FF48C0DAFFDECF12
:101E400003F0DDCF04F01D0E056E0D0E066E000EC4
:101E5000086E020E076E13EC25F003500410D8A490
:101E600034EF0FF036EF0FF072EF0FF047C0D9FFED
:101E700048C0DAFFDECF4BF0DDCF4CF0010E4B2631
:101E8000000E4C224BC0F6FF4CC0F7FF0800F5CF08
:101E900072F0020E47C0D9FF48C0DAFFDE26000EFE
:101EA000DD2249C0D9FF4AC0DAFFDFCF4BF0020E76
:101EB000DE26DFCF4CF0000EDD224BC0D9FF4CC038
:101EC000DAFFDECF4DF0DDCF4EF04DC073F04EC0E7
:101ED00074F00001756B766B776B786B796B7A6B4E
:101EE00019EF0EF047C0D9FF48C0DAFFDECFF6FF8A
:101EF000DDCFF7FF0800F550250AD8A482EF0FF0D8
:101F000084EF0FF09BEF0FF047C0D9FF48C0DAFF16
:101F1000DE2A000EDD22000E046E250E036E45C083
:101F200005F046C006F055EC26F0000E466E010E98
:101F3000456EBFEF0FF047C0D9FF48C0DAFFDE2A79
:101F4000000EDD223DEF0BF047C0D9FF48C0DAFF9D
:101F5000DECFF6FFDDCFF7FF0800F550036E046A11
:101F600045C005F046C006F055EC26F047C0D9FF45
:101F700048C0DAFFDE2A000EDD2295EF0FF01200D6
:101F80004650800B4F6E46504624516E45AECBEF07
:101F90000FF0CDEF0FF0CEEF0FF051805150D8B4CD
:101FA000D4EF0FF0D6EF0FF0EBEF0FF05128D8A4DD
:101FB000DCEF0FF0DEEF0FF0E6EF0FF0000E436EF8
:101FC000000E446E000E456E000E466E458E000EED
:101FD000466EF3EF0FF0000E436E000E446E000EDF
:101FE000456E000E466E4A50800B506E4F50501892
:101FF000D8B4FDEF0FF0FFEF0FF000EF10F04F8CB3
:102000004A504A24506E49AE08EF10F00AEF10F023
:102010000BEF10F050805050D8B411EF10F013EFC8
:1020200010F028EF10F05028D8A419EF10F01BEF93
:1020300010F023EF10F0000E476E000E486E000EF9
:10204000496E000E4A6E498E000E4A6E30EF10F057
:10205000000E476E000E486E000E496E000E4A6E6E
:102060005150505CD8B037EF10F039EF10F060EFFE
:1020700010F04FAC3EEF10F040EF10F042EF10F0D8
:10208000800E4F1A51C052F050C051F052C050F063
:1020900043C052F047C043F052C047F044C052F032
:1020A00048C044F052C048F045C052F049C045F025
:1020B00052C049F046C052F04AC046F052C04AF001
:1020C000000E526E515050C04BF04C6A4B5E000EE9
:1020D0004C5A4CBE75EF10F04C5009E11A0E4B5C97
:1020E000D8A075EF10F077EF10F0AEEF10F043507E
:1020F000441045104610D8A480EF10F083EF10F084
:10210000010E84EF10F0000E526E000E436E000EB2
:10211000446E000E456E000E466E50C051F0B7EF93
:1021200010F052A096EF10F098EF10F09EEF10F024
:10213000D89052300109526EA0EF10F0D890523270
:1021400043A0A5EF10F0A7EF10F0A8EF10F0528E0B
:1021500046344632453244324332512A5050515C63
:10216000D8A0B5EF10F0B7EF10F091EF10F04FBC22
:10217000BCEF10F0BEEF10F0FEEF10F05150D8A4FD
:10218000C4EF10F0C6EF10F0D0EF10F0000E436E69
:10219000000E446E000E456E000E466E1FEF12F0EC
:1021A0004750432648504422495045224A5046222F
:1021B00046A0DDEF10F0DFEF10F08BEF11F052A032
:1021C000E4EF10F0E6EF10F0ECEF10F0D8905230A2
:1021D0000109526EEEEF10F0D890523243A0F3EFA7
:1021E00010F0F5EF10F0F6EF10F0528E4634463254
:1021F000453244324332512A8BEF11F04750435C51
:1022000048504458495045584650800A4B6E4A50F1
:10221000800A4B58D8B00FEF11F011EF11F03CEFDE
:1022200011F04350475C4B6E445048584C6E45503B
:1022300049584D6E46504A584E6EFF0E4B24436E21
:10224000FF0E4C20446EFF0E4D20456EFF0E4E20BB
:10225000466E800E4F1A526C5250D8A432EF11F0D5
:1022600034EF11F044EF11F0010E4326000E44222A
:102270004522462244EF11F04750435E4850445AED
:102280004950455A4A50465A43504410451046104A
:10229000D8A44DEF11F04FEF11F084EF11F0525030
:1022A000D8A455EF11F057EF11F084EF11F0000EA4
:1022B000436E000E446E000E456E000E466E1FEF1C
:1022C00012F0D890433644364536463652AE6BEF60
:1022D00011F06DEF11F06EEF11F0438052A073EF2B
:1022E00011F075EF11F079EF11F0D88052367BEFD5
:1022F00011F0D89052365150D8B481EF11F083EFDD
:1023000011F084EF11F0510645AE89EF11F08BEF1B
:1023100011F061EF11F0000E506E52AE92EF11F01D
:1023200094EF11F0ACEF11F052C04BF07F0E4B1652
:10233000D8B49DEF11F09FEF11F0A3EF11F0010E53
:10234000506EACEF11F043A0A8EF11F0AAEF11F01E
:10235000ACEF11F09FEF11F05050D8B4B2EF11F084
:10236000B4EF11F0DFEF11F0010E4326000E44220E
:102370004522462246A0BFEF11F0C1EF11F0DFEF7A
:1023800011F043C04BF044C04CF045C04DF046C086
:102390004EF04E344E324D324C324B324BC043F045
:1023A0004CC044F04DC045F04EC046F05128D8B462
:1023B000DCEF11F0DEEF11F0DFEF11F0512A5128C0
:1023C000D8B4E5EF11F0E7EF11F0EFEF11F0515055
:1023D000D8A4EDEF11F0EFEF11F001EF12F0000EC5
:1023E000436E000E446E000E456E000E466E515058
:1023F000D8A4FDEF11F0FFEF11F001EF12F0000E85
:102400004F6E51A006EF12F008EF12F00BEF12F032
:10241000458E0CEF12F0459ED8905130466E4FAE6F
:1024200014EF12F016EF12F017EF12F0468E43C0C1
:1024300043F044C044F045C045F046C046F01200A9
:102440001450800B1D6E14501424236E13AE2BEF0A
:1024500012F02DEF12F02EEF12F023802350D8B49B
:1024600034EF12F036EF12F049EF12F02328D8A41F
:102470003CEF12F03EEF12F046EF12F0000E116E3C
:10248000000E126E000E136E000E146E138E51EFBE
:1024900012F0000E116E000E126E000E136E000E82
:1024A000146E1850800B1D1A18501824226E17AE87
:1024B0005CEF12F05EEF12F05FEF12F0228022501C
:1024C000D8B465EF12F067EF12F07AEF12F022281D
:1024D000D8A46DEF12F06FEF12F077EF12F0000E4C
:1024E000156E000E166E000E176E000E186E178E0B
:1024F00082EF12F0000E156E000E166E000E176EB3
:10250000000E186E2250D8B488EF12F08AEF12F045
:1025100092EF12F02350D8A490EF12F092EF12F045
:102520009CEF12F0000E116E000E126E000E136E74
:10253000000E146E34EF14F017501102F3CF28F090
:10254000F4CF29F028501E6E1F6A206A216A295094
:10255000246E256A266A276A16501202F3CF28F0E5
:10256000F4CF29F028501E26000E1F2220222122FF
:1025700029502426000E2522262227221550130238
:10258000F3CF28F0F4CF29F028501E26000E1F228A
:102590002022212229502426000E2522262227220D
:1025A00020C021F01FC020F01EC01FF01E6A155071
:1025B0001202F3CF28F0F4CF29F028501E2629501C
:1025C0001F22000E2022000E212216501102F3CFEE
:1025D00028F0F4CF29F028501E2629501F22000E83
:1025E0002022000E212220C021F01FC020F01EC09A
:1025F0001FF01E6A15501102F3CF28F0F4CF29F016
:1026000028501E2629501F22000E2022000E2122B3
:1026100017501202F3CF28F0F4CF29F028502426C7
:1026200029502522000E2622000E272216501302C2
:10263000F3CF28F0F4CF29F0285024262950252262
:10264000000E2622000E272217501302F3CF28F087
:10265000F4CF29F02850196E29501A6E1B6A1C6A93
:102660001BC01CF01AC01BF019C01AF0196A1950CF
:1026700024261A5025221B5026221C5027221EC019
:1026800019F01FC01AF020C01BF021C01CF0190E59
:102690004FEF13F0D8901C321B321A321932E82E49
:1026A0004AEF13F0195024261A5025221B502622D7
:1026B0001C50272220C021F01FC020F01EC01FF098
:1026C0001E6A225023C019F01A6A1926000E1A2217
:1026D000820E1924286EFF0E1A20296E85EF13F042
:1026E000D890243625362636273621AE7AEF13F0D9
:1026F0007CEF13F07DEF13F02480D8901E361F3648
:10270000203621362806D8A0290626AE8AEF13F0F7
:102710008CEF13F070EF13F0000E226E21AE93EFEA
:1027200013F095EF13F0B9EF13F0FF0E1E14196EAE
:10273000FF0E1F141A6EFF0E20141B6E7F0E211445
:102740001C6E19501A101B101C10D8B4AAEF13F0ED
:10275000ACEF13F0B0EF13F0010E226EB9EF13F0EF
:1027600024A0B5EF13F0B7EF13F0B9EF13F0ACEF0F
:1027700013F02250D8B4BFEF13F0C1EF13F0E5EF20
:1027800013F0010E2426000E25222622272227A040
:10279000CCEF13F0CEEF13F0E5EF13F024C019F0F7
:1027A00025C01AF026C01BF027C01CF01C341C32B8
:1027B0001B321A32193219C024F01AC025F01BC07E
:1027C00026F01CC027F0284A292A29BEF0EF13F072
:1027D000295008E12828D8A0F0EF13F0F2EF13F009
:1027E000FCEF13F0000E246E000E256E800E266E98
:1027F0007F0E276E2AEF14F029BE09EF14F029503E
:1028000006E12804D8B007EF14F009EF14F015EF33
:1028100014F0000E246E000E256E000E266E000EC3
:10282000276E000E1D6E2AEF14F028C023F0FF0E55
:102830002416FF0E25167F0E2616000E271623A03F
:1028400024EF14F026EF14F027EF14F0268ED89022
:102850002330276E1D50271224C011F025C012F01E
:1028600026C013F027C014F012002D50800B3A6ED2
:102870002D502D24416E2CAE40EF14F042EF14F099
:1028800043EF14F041804150D8B449EF14F04BEFBE
:1028900014F060EF14F04128D8A451EF14F053EF76
:1028A00014F05BEF14F0000E2A6E000E2B6E000E7B
:1028B0002C6E000E2D6E2C8E000E2D6E68EF14F017
:1028C000000E2A6E000E2B6E000E2C6E000E2D6E6A
:1028D0003150800B3A1A31503124426E30AE73EFD2
:1028E00014F075EF14F076EF14F042804250D8B433
:1028F0007CEF14F07EEF14F093EF14F04228D8A48C
:1029000084EF14F086EF14F08EEF14F0000E2E6EAC
:10291000000E2F6E000E306E000E316E308E000EE7
:10292000316E9BEF14F0000E2E6E000E2F6E000E17
:10293000306E000E316E2E502F1030103110D8A492
:10294000A4EF14F0A6EF14F0BEEF14F0000E2A6E00
:10295000000E2B6E000E2C6E000E2D6E800E2C12B3
:102960007F0E2D123A502D122AC02AF02BC02BF0C8
:102970002CC02CF02DC02DF001EF16F04150D8A442
:10298000C4EF14F0C6EF14F0D0EF14F0000E2A6E6E
:10299000000E2B6E000E2C6E000E2D6E01EF16F049
:1029A000425041C032F0336A325E000E335A7F0E1D
:1029B00032243B6E000E33203C6E2AC036F02BC012
:1029C00037F02CC038F02DC039F0000E2A6E000E02
:1029D0002B6E000E2C6E000E2D6E000E3D6E000E46
:1029E0003E6E000E3F6E000E406E000E426E31EFE6
:1029F00015F04250D8B4FFEF14F001EF15F018EFC6
:102A000015F0D8903636373638363936D8902A36DB
:102A10002B362C362D3640AE10EF15F012EF15F098
:102A200013EF15F02A80D8903D363E363F364036BB
:102A30002E50365C2F503758305038583150395856
:102A4000D8A025EF15F027EF15F030EF15F0408CEA
:102A50002E50365E2F50375A3050385A3150395A2E
:102A6000422A190E426437EF15F039EF15F0F9EFED
:102A700014F03650371038103910D8B442EF15F032
:102A800044EF15F05CEF15F03D805CEF15F0D89049
:102A90002A362B362C362D3640AE51EF15F053EF3B
:102AA00015F054EF15F02A80D8903D363E363F366B
:102AB00040363B06D8A03C062CAE61EF15F063EF24
:102AC00015F047EF15F0000E426E40AE6AEF15F0BC
:102AD0006CEF15F090EF15F0FF0E3D14326EFF0E07
:102AE0003E14336EFF0E3F14346E7F0E4014356E6D
:102AF0003250331034103510D8B481EF15F083EF15
:102B000015F087EF15F0010E426E90EF15F02AA038
:102B10008CEF15F08EEF15F090EF15F083EF15F0B8
:102B20004250D8B496EF15F098EF15F0BCEF15F0C1
:102B3000010E2A26000E2B222C222D222DA0A3EFDF
:102B400015F0A5EF15F0BCEF15F02AC032F02BC040
:102B500033F02CC034F02DC035F0353435323432FA
:102B60003332323232C02AF033C02BF034C02CF072
:102B700035C02DF03B4A3C2A3CBEC7EF15F03C5017
:102B800008E13B28D8A0C7EF15F0C9EF15F0D4EF46
:102B900015F0000E3C6E3B68000E2A6E000E2B6E88
:102BA000000E2C6E000E2D6E3CBEE1EF15F03C5079
:102BB00006E13B04D8B0DFEF15F0E1EF15F0EFEFE1
:102BC00015F0000E3C6E000E3B6E000E2A6E000EDD
:102BD0002B6E000E2C6E000E2D6E000E3A6E3BC05A
:102BE00041F041A0F6EF15F0F8EF15F0FBEF15F00E
:102BF0002C8EFCEF15F02C9ED89041302D6EB2EF4C
:102C000014F012000001FA51D8A409EF16F00BEFEE
:102C100016F013EF16F0BBCF68F1BCCF69F1010ECF
:102C2000FA6F23EF16F0BBCF66F1BCCF67F101015D
:102C30006851665D0001F06F01016951675900013B
:102C4000F16F000EFA6F010164510001F0190BE100
:102C5000010165510001F119D8B431EF16F033EFDD
:102C600016F0A3EF17F0F0C064F1F1C065F1F00EBB
:102C7000F01907E1030EF119D8A441EF16F043EF64
:102C800016F092EF16F0FB0E476EBC0E486E940ED7
:102C9000496E420E4A6E000E2E6E000E2F6E700EA2
:102CA000306E420E316E8C0E156E430E166E9A0EFD
:102CB000176E3F0E186EE8C003F0E9C004F0056A15
:102CC000066A000EB4EC1FF003C011F004C012F04D
:102CD00005C013F006C014F020EC12F011C02AF069
:102CE00012C02BF013C02CF014C02DF035EC14F0F2
:102CF0002AC043F02BC044F02CC045F02DC046F054
:102D0000C0EC0FF043C053F044C054F045C055F040
:102D100046C056F017EC24F053C0EEF054C0EFF06C
:102D2000A3EF17F0D00EF01907E1070EF119D8A4A0
:102D30009CEF16F09EEF16F0EDEF16F0200E476EAA
:102D4000010E486E770E496E420E4A6E000E2E6ED0
:102D5000000E2F6E700E306E420E316E8C0E156EA0
:102D6000430E166E9A0E176E3F0E186EE8C003F0F3
:102D7000E9C004F0056A066A000EB4EC1FF003C057
:102D800011F004C012F005C013F006C014F020ECDE
:102D900012F011C02AF012C02BF013C02CF014C096
:102DA0002DF035EC14F02AC043F02BC044F02CC0B9
:102DB00045F02DC046F0C0EC0FF043C053F044C0C6
:102DC00054F045C055F046C056F017EC24F053C0FF
:102DD000EEF054C0EFF0A3EF17F0C00EF01907E1CA
:102DE0000B0EF119D8A4F7EF16F0F9EF16F048EF33
:102DF00017F04B0E476E880E486E440E496E420E19
:102E00004A6E000E2E6E000E2F6E700E306E420E49
:102E1000316E8C0E156E430E166E9A0E176E3F0EA7
:102E2000186EE8C003F0E9C004F0056A066A000EF7
:102E3000B4EC1FF003C011F004C012F005C013F091
:102E400006C014F020EC12F011C02AF012C02BF0D2
:102E500013C02CF014C02DF035EC14F02AC043F050
:102E60002BC044F02CC045F02DC046F0C0EC0FF054
:102E700043C053F044C054F045C055F046C056F02E
:102E800017EC24F053C0EEF054C0EFF0A3EF17F0AE
:102E9000A00EF01907E10F0EF119D8A452EF17F0A8
:102EA00054EF17F0A3EF17F0430E476E2D0E486E48
:102EB000BF0E496E410E4A6E000E2E6E000E2F6E32
:102EC000700E306E420E316E8C0E156E430E166E05
:102ED0009A0E176E3F0E186EE8C003F0E9C004F0BA
:102EE000056A066A000EB4EC1FF003C011F004C0BE
:102EF00012F005C013F006C014F020EC12F011C05F
:102F00002AF012C02BF013C02CF014C02DF035ECB9
:102F100014F02AC043F02BC044F02CC045F02DC063
:102F200046F0C0EC0FF043C053F044C054F045C02D
:102F300055F046C056F017EC24F053C0EEF054C0E4
:102F4000EFF0A3EF17F0A190120020C038F021C0DD
:102F500039F022C03AF023C03BF024C03CF025C039
:102F60003DF026C03EF027C03FF03FBEBAEF17F05D
:102F7000BDEF17F0010EBEEF17F0000E366E376A88
:102F800036503710D8B4C7EF17F0C9EF17F0D9EFA4
:102F900017F03F1E3E1E3D1E3C1E3B1E3A1E391EB4
:102FA000386C000E39223A223B223C223D223E223E
:102FB0003F220001E7BFDFEF17F0E1EF17F0E2EF8C
:102FC00017F05B92E7BFEFEF17F0E75106E1E60578
:102FD000D8B0EDEF17F0EFEF17F0F5EF17F0000EA8
:102FE000336E010E326EF9EF17F0E6C032F0E7C033
:102FF00033F0E4C034F0E5C035F036503710D8A4D3
:1030000004EF18F006EF18F00DEF18F05BA40BEFCB
:1030100018F00DEF18F010EF18F03406D8A03506B0
:10302000000E416E1F0E406E000E01018F6F95EF76
:1030300018F04006D8A04106700E4024D96E010E4B
:103040004120DA6E38C003F039C004F03AC005F010
:103050003BC006F03CC007F03DC008F03EC009F0A0
:103060003FC00AF00A0E0B6E000E0C6E000E0D6EC5
:10307000000E0E6E000E0F6E000E106E000E116E22
:10308000000E126EDBEC22F003C028F004C029F021
:1030900005C02AF006C02BF007C02CF008C02DF0A8
:1030A00009C02EF00AC02FF028C015F02AC016F073
:1030B00067EC2AF01550300FDF6E3206D8A03306C9
:1030C0003406D8A0350638C003F039C004F03AC041
:1030D00005F03BC006F03CC007F03DC008F03EC024
:1030E00009F03FC00AF00A0E0B6E000E0C6E000EC7
:1030F0000D6E000E0E6E000E0F6E000E106E000EA6
:10310000116E000E126E56EC21F003C038F004C0B0
:1031100039F005C03AF006C03BF007C03CF008C0EB
:103120003DF009C03EF00AC03FF041BEA0EF18F0EC
:10313000415008E14004D8A0A0EF18F0A2EF18F029
:10314000D2EF18F0385039103A103B103C103D10B7
:103150003E103F10D8A4AFEF18F0B1EF18F019EF00
:1031600018F033BEBEEF18F0335006E13204D8B089
:10317000BCEF18F0BEEF18F019EF18F035BEC9EF2C
:1031800018F0355008E13404D8A0C9EF18F0CBEF9F
:1031900018F0D2EF18F05BB2D0EF18F0D2EF18F0C1
:1031A00019EF18F036503710D8A4D9EF18F0DBEF2C
:1031B00018F0E2EF18F05BA4E0EF18F0E2EF18F07F
:1031C00000EF19F04006D8A0410636503710D8A4B9
:1031D000ECEF18F0EEEF18F0F4EF18F0000E316E8F
:1031E0002B0E306EF8EF18F0000E316E2D0E306E93
:1031F000700E4024D96E010E4120DA6E30C0DFFF20
:103200001EC013F01FC014F0700E4024156E010E86
:103210004120166E34C017F035C018F0BAEC26F015
:1032200013C01EF014C01FF012000001E7BF1BEF17
:1032300019F01DEF19F01EEF19F05B92E7BF2BEFAD
:1032400019F0E75106E1E605D8B029EF19F02BEFA8
:1032500019F031EF19F0000E366E010E356E35EFB4
:1032600019F0E6C035F0E7C036F0E4C037F0E5C04D
:1032700038F05BA83EEF19F040EF19F044EF19F079
:10328000FE0E3726FF0E382220C039F021C03AF05A
:1032900022C03BF023C03CF024C03DF025C03EF0EE
:1032A00026C03FF027C040F0000E426E1F0E416E58
:1032B000000E01018F6F10EF1AF04106D8A04206F0
:1032C0000F0E3914436E446A44BE70EF19F0445037
:1032D00009E10A0E435CD8A070EF19F072EF19F003
:1032E0007AEF19F0570E4324436E000E4420446ECB
:1032F00080EF19F0300E4324436E000E4420446EDC
:10330000BF0E296EFF0E2A6E28502B6E2C6A295094
:103310002B262A502C222C500AE11A0E2B5CD8A006
:1033200094EF19F097EF19F0010E98EF19F0000ED5
:10333000316E326A31503210D8B4A1EF19F0A3EFD8
:1033400019F0D3EF19F09F0E296EFF0E2A6E200E92
:1033500043102B6E000E44102C6E29502B262A5041
:103360002C222C500AE11A0E2B5CD8A0BAEF19F0CF
:10337000BDEF19F0010EBEEF19F0000E336E346A86
:1033800033503410D8B4C7EF19F0C9EF19F0D3EFA8
:1033900019F043C009F044C00AF088EC28F009C0D5
:1033A00043F00AC044F0700E4124D96E010E422051
:1033B000DA6E43C0DFFF3506D8A036063706D8A040
:1033C000380639C029F03AC02AF03BC02BF03CC087
:1033D0002CF03DC02DF03EC02EF03FC02FF040C07D
:1033E00030F0050EFDEF19F0D89030322F322E322A
:1033F0002D322C322B322A322932E82EF4EF19F0FA
:1034000029C039F02AC03AF02BC03BF02CC03CF068
:103410002DC03DF02EC03EF02FC03FF030C040F038
:1034200042BE1CEF1AF0425009E1020E415CD8A0E6
:103430001CEF1AF01EEF1AF04EEF1AF039503A1046
:103440003B103C103D103E103F104010D8A42BEF15
:103450001AF02DEF1AF05DEF19F036BE3AEF1AF0C0
:10346000365006E13504D8B038EF1AF03AEF1AF0CA
:103470005DEF19F038BE45EF1AF0385008E1370417
:10348000D8A045EF1AF047EF1AF04EEF1AF05BB2F2
:103490004CEF1AF04EEF1AF05DEF19F05BA853EF06
:1034A0001AF055EF1AF06BEF1AF04106D8A0420659
:1034B000700E4124D96E010E4220DA6E28C0DFFF63
:1034C0004106D8A04206700E4124D96E010E42205A
:1034D000DA6E300EDF6E1EC013F01FC014F0700ED7
:1034E0004124156E010E4220166E37C017F038C009
:1034F00018F0BAEC26F013C01EF014C01FF0120032
:1035000021EE11F010EE9FF00A0EDBCFE3FFE8068C
:10351000FCE20001F951D8A490EF1AF092EF1AF0F2
:10352000BFEF1AF0000E086E800E076E32EC2CF022
:1035300062EC2BF021EE48F010EEC2F0040EDBCF6F
:10354000E3FFE806FCE2C20E086E000E096E000EF4
:103550000B6E050E0A6E59EC28F0EEC099F0EFC024
:103560009AF047EC2AF09F0E086E000E096E000ECE
:103570000B6E0B0E0A6E59EC28F09AEF1BF0F90552
:10358000D8A4C5EF1AF0C7EF1AF00AEF1BF0000E2F
:10359000086EC00E076E32EC2CF062EC2BF050C1BE
:1035A000CFF051C1D0F021EE26F010EEB4F0070EAE
:1035B000DBCFE3FFE806FCE2B40E086E000E096EF6
:1035C000000E0B6E080E0A6E59EC28F0FDC099F043
:1035D00000019A6B27EC2AF0F6C099F000019A6B73
:1035E00027EC2AF0CF0E086E000E096E000E0B6E4F
:1035F000020E0A6E59EC28F0F7C099F000019A6BA0
:1036000027EC2AF0F8C099F000019A6B27EC2AF019
:103610009AEF1BF0020EF919D8A411EF1BF013EF6B
:103620001BF079EF1BF0000E086E800E076E32EC77
:103630002CF062EC2BF021EE43F010EEC7F0040EFC
:10364000DBCFE3FFE806FCE2C70E086E000E096E52
:10365000000E0B6E050E0A6E59EC28F00001ED51BC
:1036600007E10A0EEC5DD8B038EF1BF03AEF1BF023
:1036700042EF1BF0ECC099F0EDC09AF027EC2AF075
:1036800048EF1BF0ECC099F0EDC09AF047EC2AF03F
:103690004DC1CCF04EC1CDF04FC1CEF0CC0E086E76
:1036A000000E096E000E0B6E030E0A6E59EC28F028
:1036B000000E086E880E076E32EC2CF021EE3DF005
:1036C00010EEBCF0050EDBCFE3FFE806FCE2BC0E1B
:1036D000086E000E096E000E0B6E060E0A6E59EC97
:1036E00028F0FEC099F0FFC09AF047EC2AF09AEF5C
:1036F0001BF0000E086EC00E076E32EC2CF062EC70
:103700002BF021EE1CF010EEAAF0090EDBCFE3FF48
:10371000E806FCE2AA0E086E000E096E000E0B6EA3
:103720000A0E0A6E59EC28F0EAC099F0EBC09AF044
:1037300047EC2AF012000001F551D8B4A2EF1BF0BB
:10374000A4EF1BF034EF1CF0F851D8A4AAEF1BF043
:10375000ACEF1BF0B7EF1BF0000EF96F80EC1AF026
:10376000010E0001F96F80EC1AF034EF1CF0F851F3
:10377000D8B4BDEF1BF0BFEF1BF0E6EF1BF0050E5A
:10378000F861C5EF1BF0C7EF1BF0E6EF1BF001017E
:103790005E510001EE190BE101015F510001EF19CB
:1037A000D8B4D5EF1BF0D7EF1BF0DFEF1BF0EEC066
:1037B0005EF1EFC05FF1000EF96F80EC1AF0010EC0
:1037C0000001F96FB6EC2BF034EF1CF0050EF81980
:1037D000D8A4EDEF1BF0EFEF1BF0FAEF1BF0020E99
:1037E000F96F80EC1AF0030E0001F96F80EC1AF00B
:1037F00034EF1CF0050EF86500EF1CF002EF1CF032
:1038000034EF1CF001015C510001EC190BE10101E6
:103810005D510001ED19D8B410EF1CF012EF1CF04F
:103820001AEF1CF0ECC05CF1EDC05DF1020EF96F17
:10383000E2EC29F0010158510001FE190BE10101F0
:1038400059510001FF19D8B428EF1CF02AEF1CF0E1
:1038500034EF1CF0FEC058F1FFC059F1020EF96FB1
:10386000D4EC2BF034EF1CF0010E0001D325D36F04
:10387000000ED421D46F090EF819D8A442EF1CF021
:1038800044EF1CF088EF1CF0050EF719D8A44BEF9D
:103890001CF04DEF1CF082EF1CF0090EF619D8A4B5
:1038A00054EF1CF056EF1CF079EF1CF0050EFD19DB
:1038B000D8A45DEF1CF05FEF1CF063EF1CF0000E6E
:1038C000FD6F65EF1CF0FD29FD6F000EF66FF42B08
:1038D000ECC003F0EDC004F0F4C005F0066A56EC4D
:1038E00027F003C0EAF004C0EBF0C5EC2BF07DEF4D
:1038F0001CF0F629F66F67EF1CF0000E0001F76F61
:1039000084EF1CF0F729F76F000EF86F8AEF1CF0B8
:10391000F829F86FFDC003F0046A020E066E580E17
:10392000056EA3EC2BF00001F6513C0DF3CFD1F066
:10393000F4CFD2F0F7510A0DF350D127F450D2232F
:103940000350D1270450D223F851D125E86F000E3F
:10395000D221E96FD59E0B0ED76EDC0ED66EF29497
:10396000D58E12001BEC27F087EC2AF079EC2BF0B7
:10397000FCEC2BF0F0EC2BF082A0C1EF1CF0C3EFBD
:103980001CF0DBEF1CF001016F296F6F6FB1CBEF03
:103990001CF0CDEF1CF0D4EF1CF0000E0001F56F11
:1039A000D59E839E06EF1DF0D58E838E010E0001FD
:1039B000F56F06EF1DF082A2E0EF1CF0E2EF1CF0C5
:1039C00006EF1DF0D59E839E000E0001F56FF0EC12
:1039D0002BF0000E0001F86F000EF76F000EF66F6F
:1039E000000EFD6F000E01016F6F000E0001ED6F04
:1039F000000EEC6F000EFF6F0A0EFE6FFEC054F15A
:103A0000FFC055F1000EF46FB7EC28F00001F5513E
:103A1000D8B40DEF1DF00FEF1DF0BCEF1CF083AC20
:103A200014EF1DF016EF1DF041EF1DF001016E5176
:103A3000D8A41DEF1DF01FEF1DF053EF1DF0000186
:103A4000EC4BED2B010E01016E6F54510001EC198E
:103A500009E1010155510001ED19D8A432EF1DF023
:103A600034EF1DF053EF1DF0FE510101542700010A
:103A7000FF510101552382883EEC29F0829853EFD3
:103A80001DF083BC46EF1DF048EF1DF053EF1DF015
:103A900001016E51D8B44FEF1DF051EF1DF053EFFF
:103AA0001DF0000E6E6F83A058EF1DF05AEF1DF051
:103AB00073EF1DF001016D51D8A461EF1DF063EFAC
:103AC0001DF085EF1DF00A0E0001FE25FE6F000EB1
:103AD000FF21FF6F0A0E01015427000E5523010E2E
:103AE0006D6F85EF1DF083B078EF1DF07AEF1DF05C
:103AF00085EF1DF001016D51D8B481EF1DF083EF0A
:103B00001DF085EF1DF0000E6D6F83A28AEF1DF092
:103B10008CEF1DF0A5EF1DF001016C51D8A493EFBF
:103B20001DF095EF1DF0BCEF1CF0F60E0001FE2518
:103B3000FE6FFF0EFF21FF6F0A0E0101545F000EA2
:103B4000555B010E6C6FBCEF1CF083B2AAEF1DF049
:103B5000ACEF1DF0B9EF1DF001016C51D8B4B3EF1B
:103B60001DF0B5EF1DF0B9EF1DF0000E6C6FBCEF4E
:103B70001CF0BCEF1CF055EF00F00001E7BFC3EFF5
:103B80001DF0C5EF1DF0C6EF1DF05B92E7BFD3EF50
:103B90001DF0E75106E1E605D8B0D1EF1DF0D3EFF7
:103BA0001DF0D9EF1DF0000E316E010E306EDDEF0D
:103BB0001DF0E6C030F0E7C031F0E4C032F0E5C0FF
:103BC00033F020C034F021C035F022C036F023C0DD
:103BD00037F024C038F025C039F026C03AF027C0AD
:103BE0003BF0000E3D6E1F0E3C6E000E01018F6F0C
:103BF00070EF1EF03C06D8A03D06700E3C24D96E36
:103C0000010E3D20DA6E34C003F035C004F036C03A
:103C100005F037C006F038C007F039C008F03AC0E8
:103C200009F03BC00AF00A0E0B6E000E0C6E000E7F
:103C30000D6E000E0E6E000E0F6E000E106E000E5A
:103C4000116E000E126EEDEC25F003C028F004C0DA
:103C500029F005C02AF006C02BF007C02CF008C0E0
:103C60002DF009C02EF00AC02FF02850300FDF6E63
:103C70003006D8A031063206D8A0330634C003F08F
:103C800035C004F036C005F037C006F038C007F084
:103C900039C008F03AC009F03BC00AF00A0E0B6EBA
:103CA000000E0C6E000E0D6E000E0E6E000E0F6EEE
:103CB000000E106E000E116E000E126E9BEC24F0C2
:103CC00003C034F004C035F005C036F006C037F04C
:103CD00007C038F008C039F009C03AF00AC03BF01C
:103CE0003C503D10D8B477EF1EF079EF1EF0A9EFED
:103CF0001EF03450351036103710381039103A1085
:103D00003B10D8A486EF1EF088EF1EF0FAEF1DF0EE
:103D100031BE95EF1EF0315006E13004D8B093EF7C
:103D20001EF095EF1EF0FAEF1DF033BEA0EF1EF06F
:103D3000335008E13204D8A0A0EF1EF0A2EF1EF02D
:103D4000A9EF1EF05BB2A7EF1EF0A9EF1EF0FAEF8D
:103D50001DF01EC013F01FC014F0700E3C24156E31
:103D6000010E3D20166E32C017F033C018F0BAECC9
:103D700026F013C01EF014C01FF012000001E7BFB0
:103D8000C4EF1EF0C6EF1EF0C7EF1EF05B92E7BF58
:103D9000D4EF1EF0E75106E1E605D8B0D2EF1EF0F1
:103DA000D4EF1EF0DAEF1EF0000E316E010E306E11
:103DB000DEEF1EF0E6C030F0E7C031F0E4C034F0D2
:103DC000E5C035F020C036F021C037F022C038F011
:103DD00023C039F024C03AF025C03BF026C03CF0A7
:103DE00027C03DF0000E3F6E1F0E3E6E000E01011B
:103DF0008F6F000E336E000E326E44EF1FF03E06E2
:103E0000D8A03F06070E3614326E336A700E3E2479
:103E1000D96E010E3F20DA6E3250300FDF6E300661
:103E2000D8A031063406D8A0350636C028F037C0F1
:103E300029F038C02AF039C02BF03AC02CF03BC032
:103E40002DF03CC02EF03DC02FF0040E31EF1FF0DE
:103E5000D8902F322E322D322C322B322A32293268
:103E60002832E82E28EF1FF028C036F029C037F09E
:103E70002AC038F02BC039F02CC03AF02DC03BF0EE
:103E80002EC03CF02FC03DF03FBE4FEF1FF03F5023
:103E900008E13E04D8A04FEF1FF051EF1FF081EF73
:103EA0001FF036503710381039103A103B103C10C4
:103EB0003D10D8A45EEF1FF060EF1FF0FFEF1EF083
:103EC00031BE6DEF1FF0315006E13004D8B06BEF1A
:103ED0001FF06DEF1FF0FFEF1EF035BE78EF1FF003
:103EE000355008E13404D8A078EF1FF07AEF1FF0C6
:103EF00081EF1FF05BB27FEF1FF081EF1FF0FFEF4C
:103F00001EF05BA886EF1FF088EF1FF09FEF1FF0F9
:103F100032503310D8B48FEF1FF091EF1FF09FEFA6
:103F20001FF03E06D8A03F06700E3E24D96E010E4B
:103F30003F20DA6E300EDF6E3406D8A035061EC084
:103F400013F01FC014F0700E3E24156E010E3F20BA
:103F5000166E34C017F035C018F0BAEC26F013C056
:103F60001EF014C01FF012000B6E0B50D8B4BBEF44
:103F70001FF0BDEF1FF0DFEF1FF006BEC4EF1FF014
:103F8000C2EF1FF0DFEF1FF003C007F004C008F01E
:103F900005C009F006C00AF0071E081E091E0A1E09
:103FA000072A000E082209220A2207C00DF008C0C5
:103FB0000EF009C00FF00AC010F0E7EF1FF003C0C9
:103FC0000DF004C00EF005C00FF006C010F0035055
:103FD000041005100610D8A4F0EF1FF0F2EF1FF048
:103FE000FCEF1FF0000E036E000E046E000E056E57
:103FF000000E066E8DEF20F0960E0C6E06EF20F090
:104000000C2AD89010320F320E320D32000E0D14E1
:10401000076E000E0E14086E000E0F14096EFE0ED1
:1040200010140A6E0750081009100A10D8A41BEFCC
:1040300020F01DEF20F000EF20F02BEF20F00C2AF5
:10404000010E0D26000E0E220F221022D8901032E3
:104050000F320E320D32000E0D14076E000E0E14CC
:10406000086E000E0F14096EFF0E10140A6E075032
:10407000081009100A10D8A440EF20F042EF20F0F9
:104080001FEF20F04AEF20F00C06D8900D360E36C8
:104090000F3610360FBE4FEF20F051EF20F059EFE2
:1040A00020F0020E0C6057EF20F059EF20F044EFA3
:1040B00020F00CB05EEF20F060EF20F061EF20F018
:1040C0000F9ED8900C320CC007F0086A096A0A6A81
:1040D00007C00AF0096A086A076A07500D120850FB
:1040E0000E1209500F120A5010120B50D8B47BEF69
:1040F00020F07DEF20F085EF20F006BE84EF20F069
:1041000082EF20F085EF20F0108E0DC003F00EC07E
:1041100004F00FC005F010C006F01200000E186E7B
:10412000000E176E000E116E000E106E9AEF20F04A
:104130000A4A0B2A010E166E0AC0F6FF0BC0F7FFE3
:104140000800F550200AD8B4A8EF20F0AAEF20F01C
:10415000C7EF20F0F70E0C6EFF0E0D6E0AC0F6FFD3
:104160000BC0F7FF0800F5500E6E0F6A0C500E26BC
:104170000D500F220F5009E1050E0E5CD8A0C3EFC1
:1041800020F0C5EF20F0C7EF20F0000E166E16C02D
:1041900012F0136A12501310D8A4D1EF20F0D3EF0D
:1041A00020F098EF20F0DDEF20F0000E116E010EF0
:1041B000106E0A4A0B2A12EF21F00AC0F6FF0BC05C
:1041C000F7FF0800F5500C6E0D6A0D50000AD8B4C8
:1041D000ECEF20F012EF21F00C502B0AD8B4D9EFFD
:1041E00020F0060AD8B4D5EF20F012EF21F017C066
:1041F00003F018C004F0000E066E0A0E056EA3EC64
:104200002BF00AC0F6FF0BC0F7FF0800F550035E65
:10421000000E045A300E0324176E000E0420186E90
:10422000D9EF20F0D00E0C6EFF0E0D6E0AC0F6FF17
:104230000BC0F7FF0800F5500E6E0F6A0C500E26EB
:104240000D500F220F500AE10A0E0E5CD8A02BEF82
:1042500021F02EEF21F0010E2FEF21F0000E146E51
:10426000156A14501510D8A438EF21F03AEF21F058
:10427000F7EF20F010501110D8A441EF21F043EFD8
:1042800021F051EF21F017C00CF018C00DF00C1EFA
:104290000D1E0C4A0D2A0CC00AF00DC00BF055EF94
:1042A00021F017C00AF018C00BF01200000E146EB7
:1042B00012BE5FEF21F05DEF21F071EF21F0121ED1
:1042C000111E101E0F1E0E1E0D1E0C1E0B6C000E5E
:1042D0000C220D220E220F22102211221222010E78
:1042E000146E0ABE78EF21F076EF21F08AEF21F00C
:1042F0000A1E091E081E071E061E051E041E036C4C
:10430000000E0422052206220722082209220A2280
:10431000010E141A20EE15F0070EDE6AE806FDE223
:104320000B500C100D100E100F1010101110121059
:10433000D8B49DEF21F09FEF21F0F1EF21F0010EB5
:10434000136EADEF21F0D8900B360C360D360E36CD
:104350000F36103611361236132A12AEB2EF21F094
:10436000B4EF21F0A3EF21F0D890153616361736AA
:10437000183619361A361B361C360B50035C0C5097
:1043800004580D5005580E5006580F50075810503D
:1043900008581150095812500A58D8A0D2EF21F0ED
:1043A000D4EF21F0E5EF21F00B50035E0C50045ADE
:1043B0000D50055A0E50065A0F50075A1050085A01
:1043C0001150095A12500A5A1580D89012321132DF
:1043D00010320F320E320D320C320B32132EB4EF7C
:1043E00021F01450D8B4F7EF21F0F9EF21F009EFE4
:1043F00022F01C1E1B1E1A1E191E181E171E161E2A
:10440000156C000E16221722182219221A221B22BE
:104410001C2215C003F016C004F017C005F018C028
:1044200006F019C007F01AC008F01BC009F01CC044
:104430000AF0120021EE36F010EE11F0060EDBCF7E
:10444000E3FFE806FCE20EC01CF00FC01DF01C509C
:104450001D10D8A42EEF22F030EF22F034EF22F01E
:10446000110E1C6E000E1D6E1CC003F01DC004F06A
:1044700018EC2BF003C020F004C021F0E6C01EF0C1
:10448000E7C01FF01FBE47EF22F049EF22F05EEFBA
:1044900022F020501E5C1F50800A106E2150800AAE
:1044A0001058D8A056EF22F058EF22F05AEF22F021
:1044B0005EEF22F01EC020F01FC021F020C01EF0D1
:1044C00021C01FF0E4C01AF0E5C01BF05BB06BEF39
:1044D00022F06DEF22F08AEF22F07BEF22F0000E47
:1044E000046E200E036E0CC005F00DC006F055ECF6
:1044F00026F0204A212A1A50205C2150800A106E92
:104500001B50800A1058D8A088EF22F08AEF22F0C2
:104510006FEF22F0000E196E000E186EA3EF22F05E
:104520001CC0D9FF1DC0DAFFDF50106E1050036EA3
:10453000046A0CC005F00DC006F055EC26F01C4ACC
:104540001D2A184A192A1E50185C1950800A106E2C
:104550001F50800A1058D8A0B0EF22F0B2EF22F01E
:1045600090EF22F05BA0B7EF22F0B9EF22F0D6EF88
:1045700022F0C7EF22F0000E046E200E036E0CC076
:1045800005F00DC006F055EC26F0204A212A1A50FD
:10459000205C2150800A106E1B50800A1058D8A051
:1045A000D4EF22F0D6EF22F0BBEF22F020C00CF0C7
:1045B00021C00DF01200000E146E0ABEE4EF22F0CE
:1045C000E2EF22F0F6EF22F00A1E091E081E071E77
:1045D000061E051E041E036C000E04220522062280
:1045E0000722082209220A22010E146E12BEFDEFD4
:1045F00022F0FBEF22F00DEF23F0121E111E101E11
:104600000F1E0E1E0D1E0C1E0B6C000E0C220D221A
:104610000E220F221022112212220B500C100D100C
:104620000E100F10101011101210D8B41AEF23F042
:104630001CEF23F064EF23F0010E136E2AEF23F03A
:10464000D8900B360C360D360E360F361036113626
:104650001236132A12AE2FEF23F031EF23F020EFA2
:1046600023F00B50035C0C5004580D5005580E50AD
:1046700006580F500758105008581150095812503A
:104680000A58D8A046EF23F048EF23F058EF23F064
:104690000B50035E0C50045A0D50055A0E50065A2A
:1046A0000F50075A1050085A1150095A12500A5AFE
:1046B000D8901232113210320F320E320D320C32CB
:1046C0000B32132E31EF23F01450D8B46AEF23F0DD
:1046D0006CEF23F07CEF23F00A1E091E081E071E54
:1046E000061E051E041E036C000E0422052206226F
:1046F0000722082209220A2203C003F004C004F0A2
:1047000005C005F006C006F007C007F008C008F0B5
:1047100009C009F00AC00AF01200800E00017E5D97
:10472000D8A095EF23F097EF23F0A1EF23F0000E30
:104730000101576F4B0E566F00017B697C6916EFC4
:1047400024F07BC087F07CC088F07E5109E1020E26
:104750007D5DD8A0AEEF23F0B0EF23F0BCEF23F0E7
:10476000FF0E7D258B6FFF0E7E218C6F000E8A6FF2
:10477000000E896FC4EF23F0000E8C6F010E8B6F5B
:10478000000E8A6F010E896F870E4F6E000E506EFD
:104790007FC051F080C052F081C053F082C054F00D
:1047A00028EC28F04FC085F050C086F000017D5104
:1047B0007E11D8B4DEEF23F0E0EF23F012EF24F007
:1047C00086BFE5EF23F0E7EF23F012EF24F0FF0EB2
:1047D000576EFF0E586E7DC059F07EC05AF057508C
:1047E000592658505A225950855D5A508659D8A09A
:1047F000FCEF23F0FEEF23F006EF24F0FF0E7D2503
:10480000836FFF0E7E21846F0AEF24F085C083F052
:1048100086C084F083517B25D96E84517C21DA6E69
:10482000000EDF6E85C07BF086C07CF01200553430
:1048300056340001616F6151D8A421EF24F023EFB9
:1048400024F02DEF24F0000E536E000E546E000E77
:10485000556E000E566E9AEF24F053C057F054C0B8
:1048600058F055C059F056C05AF0200E3DEF24F0D4
:10487000D8905A32593258325732E82E38EF24F055
:104880005750606F558EFF0E5316FF0E5416FF0ED5
:104890005516000E5616960E615F61BF54EF24F058
:1048A00052EF24F06AEF24F06151800A970FD8B0DC
:1048B0005CEF24F05EEF24F060EF24F023EF24F0AF
:1048C000D8905632553254325332613F60EF24F063
:1048D00082EF24F01F0E616570EF24F072EF24F078
:1048E0007AEF24F023EF24F0D8905336543655361F
:1048F000563661076151D8A480EF24F082EF24F08E
:1049000074EF24F06051D8B488EF24F08AEF24F0DB
:1049100092EF24F0561E551E541E536C000E542266
:104920005522562253C053F054C054F055C055F090
:1049300056C056F0120020EE13F0070EDE6AE806AD
:10494000FDE20B500C100D100E100F101010111076
:104950001210D8B4AEEF24F0B0EF24F002EF25F03F
:10496000010E1B6EBEEF24F0D8900B360C360D36C0
:104970000E360F361036113612361B2A12AEC3EF22
:1049800024F0C5EF24F0B4EF24F0D8901336143699
:10499000153616361736183619361A360B50035C8C
:1049A0000C5004580D5005580E5006580F5007581B
:1049B000105008581150095812500A58D8A0E3EF67
:1049C00024F0E5EF24F0F6EF24F00B50035E0C50DA
:1049D000045A0D50055A0E50065A0F50075A1050DF
:1049E000085A1150095A12500A5A1380D89012329C
:1049F000113210320F320E320D320C320B321B2EAE
:104A0000C5EF24F013C003F014C004F015C005F086
:104A100016C006F017C007F018C008F019C009F05A
:104A20001AC00AF0120003C00AF004C00BF005C05F
:104A30000CF006C00DF00706D8A00806072806E10E
:104A40000828D8A426EF25F028EF25F035EF25F02B
:104A5000000E046E000E036E81EF25F00A4A0B2A49
:104A60000C4A0D2A0706D8A008060AC0F6FF0BC09C
:104A7000F7FF0800F5500009D8B441EF25F043EFE7
:104A800025F06FEF25F00CC0F6FF0DC0F7FF080012
:104A9000F5500009D8B44FEF25F051EF25F06FEF36
:104AA00025F007500810D8B458EF25F05AEF25F03C
:104AB0006FEF25F00AC0F6FF0BC0F7FF0800F5CF37
:104AC00009F00CC0F6FF0DC0F7FF0800F5500918FB
:104AD000D8B46DEF25F06FEF25F02EEF25F00AC06A
:104AE000F6FF0BC0F7FF0800F5CF09F00CC0F6FF8A
:104AF0000DC0F7FF0800F550095C036E046AD8A0EA
:104B000004061200C450026E016AC3500124000161
:104B1000F26F000E0220F36F01016A510001F219D9
:104B20000BE101016B510001F319D8B49AEF25F0A4
:104B30009CEF25F0EAEF25F0F2C06AF1F3C06BF1CB
:104B4000F205030EF359D8A0A8EF25F0AAEF25F03F
:104B5000B2EF25F0040EFC6F340EFB6F90EC27F0E3
:104B6000EAEF25F0030EF35DD8B0B9EF25F0BBEF07
:104B700025F0CBEF25F0F205020EF359D8A0C3EFD4
:104B800025F0C5EF25F0CBEF25F0030EFC6F330EBB
:104B9000FB6FAEEF25F0020EF35DD8B0D2EF25F03B
:104BA000D4EF25F0E4EF25F0F205010EF359D8A07B
:104BB000DCEF25F0DEEF25F0E4EF25F0020EFC6FD0
:104BC000320EFB6FAEEF25F0010EFC6F310EFB6F66
:104BD000AEEF25F08EEC2BF012000B500C100D10E8
:104BE0000E100F10101011101210D8B4FAEF25F09B
:104BF000FCEF25F044EF26F0010E136E0AEF26F0CD
:104C0000D8900B360C360D360E360F361036113660
:104C10001236132A12AE0FEF26F011EF26F000EF36
:104C200026F00B50035C0C5004580D5005580E50E4
:104C300006580F5007581050085811500958125074
:104C40000A58D8A026EF26F028EF26F038EF26F0F5
:104C50000B50035E0C50045A0D50055A0E50065A64
:104C60000F50075A1050085A1150095A12500A5A38
:104C7000D8901232113210320F320E320D320C3205
:104C80000B32132E11EF26F003C003F004C004F022
:104C900005C005F006C006F007C007F008C008F020
:104CA00009C009F00AC00AF0120005500610D8B475
:104CB0005CEF26F05EEF26F067EF26F00550061059
:104CC000D8A465EF26F067EF26F06CEF26F00350CE
:104CD00044EC2CF0B9EF26F020EE04F00550D92674
:104CE0000650DA22DE50DE10D8B479EF26F07BEFE2
:104CF00026F096EF26F020EE04F00550D926065057
:104D0000DA2210EE02F00550E1260650E222DE50D3
:104D1000E65CE650800A0B6EDE50800A0B58D8B075
:104D200094EF26F096EF26F0B9EF26F020EE02F091
:104D30000550D9260650DA22DECF07F0DDCF08F085
:104D400005C0D9FF06C0DAFFDECF09F0DDCF0AF0DB
:104D500007500924D96E08500A20DA6E03C0DFFF1D
:104D600020EE02F00550D9260650DA22DE2A000E87
:104D7000DD2212005BA0BFEF26F0C1EF26F0CBEFE3
:104D800026F015C00CF016C00DF013C00EF014C0C4
:104D90000FF005EC2AF018BED0EF26F0D2EF26F087
:104DA000D8EF26F017C01CF018C01DF0DCEF26F07D
:104DB000000E1D6E000E1C6E000E1B6E000E1A6E95
:104DC000EEEF26F0000E046E200E036E13C005F009
:104DD00014C006F055EC26F01A4A1B2A1C501A5C27
:104DE0001B50800A196E1D50800A1958D8A0FBEF7D
:104DF00026F0FDEF26F0E2EF26F05BB002EF27F0A1
:104E000004EF27F00EEF27F015C00CF016C00DF0E0
:104E100013C00EF014C00FF005EC2AF015C003F01B
:104E200016C004F018EC2BF01C500324136E1D5018
:104E30000420146E1200600ED36E000E806E000E01
:104E4000896E000E926E000E816E000E8A6E000E4C
:104E5000936E809089909280949482948B9495889C
:104E600083988C98959E839E8C9E829082928B9044
:104E70008B9294809482958C839C8C9C958083905B
:104E80008C90958283928C92949882988B98D08EF5
:104E9000F28C9E9C9D8C9F8CA190A080A290F294FD
:104EA000F28AF194F28E3BEC2CF01200000E086EA8
:104EB000000E076E05500610D8B461EF27F063EFBF
:104EC00027F08BEF27F0010E096E6BEF27F0D890DB
:104ED00005360636092A06AE70EF27F072EF27F086
:104EE00067EF27F0D890073608360550035C065068
:104EF0000458D8A07EEF27F080EF27F085EF27F049
:104F00000550035E0650045A0780D89006320532D9
:104F1000092E72EF27F007C003F008C004F012005A
:104F2000CA94040E0001FC19D8A499EF27F09BEF56
:104F300027F0A1EF27F0F90ECB6E7C0EBE6EC3EF0B
:104F400027F0030EFC19D8A4A8EF27F0AAEF27F04A
:104F5000B0EF27F0BB0ECB6E5D0EBE6EC3EF27F039
:104F6000020EFC19D8A4B7EF27F0B9EF27F0BFEF76
:104F700027F07C0ECB6E3E0EBE6EC3EF27F03E0ECA
:104F8000CB6E1F0EBE6E9E92CA841200260EF66E67
:104F9000520EF76E000EF86E01EE00F010EE56F0B5
:104FA0000900F5CFEEFFE550E150FAE1860EF66E0E
:104FB000580EF76E000EF86E0900F5CFFEF00900EE
:104FC000F5CFFFF001EE56F03A0EEE6AE806FDE18D
:104FD00000EEE2F01C0EEE6AE806FDE15C6A5B6A38
:104FE0005D905D92000EF86E0001B2EF1CF0000EB5
:104FF00001019F6F000E9E6F0CEF28F09E519525CA
:10500000D96E9F519621DA6EDF5014EC2CF04BECE8
:105010002BF001019E4B9F2BFF0E996FFF0E9A6F95
:1050200097C19BF198C19CF199519B279A519C2360
:105030009B519E5D9F51800A9D6F9C51800A9D5996
:10504000D8A025EF28F027EF28F0FEEF27F0120078
:1050500051C055F052C056F0000E0001E36F000E33
:10506000E26F46EF28F04FC045F050C046F0550EB5
:10507000476E000E486E53C049F054C04AF09BEC96
:1050800006F045500001E2274650E32355C0F6FFE5
:1050900056C0F7FF0800F5500009D8A452EF28F0D9
:1050A00054EF28F033EF28F0E2C04FF0E3C050F0A7
:1050B0001200000E126E000E116E6CEF28F01150EF
:1050C0000824D96E12500920DA6EDF501FEC2CF044
:1050D00062EC2BF0114A122AFF0E0C6EFF0E0D6EC1
:1050E0000AC00EF00BC00FF00C500E260D500F2210
:1050F0000E50115C1250800A106E0F50800A10582A
:10510000D8A085EF28F087EF28F05FEF28F0120095
:105110009F0E0B6EFF0E0C6E09C00DF00AC00EF054
:105120000B500D260C500E220E500AE11A0E0D5C8B
:10513000D8A09DEF28F0A0EF28F0010EA1EF28F0F5
:10514000000E0F6E106A0F501010D8B4AAEF28F09E
:10515000ACEF28F0B2EF28F05F0E0914096E0A6A6E
:10516000B6EF28F009C009F00AC00AF0120021EEDB
:1051700000F011EEA0F0100EDBCFE3FFE806FCE23A
:10518000000E0101956F800E946F29EC2CF0A00E9B
:105190000101956F010E966F000E986F110E976FBB
:1051A000F7EC27F0000E0101956FC00E946F29EC0B
:1051B0002CF0A00E0101956F010E966F000E986FF6
:1051C000110E976FF7EC27F012000001E451E51182
:1051D000D8A4EDEF28F0EFEF28F0F5EF28F0E4C0C9
:1051E00021F0E5C022F0FBEF28F0FF0EE425216E50
:1051F000FF0EE521226E20C070F1000E0101716FDB
:105200001EC013F01FC014F0700E156E010E166E46
:1052100021C017F022C018F0BAEC26F013C01EF01F
:1052200014C01FF012002020202020202020202049
:10523000202020202020002020202020202020208E
:10524000200050726F6D6564696F3A005469656D36
:10525000706F3A005449454D504F3A00286E756CB6
:105260006C29004D6574613A0052656D3A004361E6
:105270006C3A002020003A003A000A00000E0101BA
:10528000916F000E906F000E936F000E926F924B15
:10529000932B93BF55EF29F0935109E1960E925D40
:1052A000D8A055EF29F057EF29F047EF29F0904BA0
:1052B000912B91BF65EF29F0915109E1320E905D7C
:1052C000D8A065EF29F067EF29F043EF29F012002D
:1052D000000E0101916F000E906F000E936F000E93
:1052E000926F924B932B93BF7FEF29F0935109E17B
:1052F000960E925DD8A07FEF29F081EF29F071EF33
:1053000029F0904B912B91BF8EEF29F0915108E13C
:105310009005D8A08EEF29F090EF29F06DEF29F0DD
:105320001200010E096E200E03180410D8B49BEF72
:1053300029F09DEF29F0B6EF29F0F70E056EFF0E6C
:10534000066E03C007F004C008F00550072606509B
:105350000822085009E1050E075CD8A0B2EF29F039
:10536000B4EF29F0B6EF29F0000E096E09C003F082
:10537000046A1200000E046E000E036E000E066E2C
:10538000000E056E054A062A06BED0EF29F006502B
:1053900009E1960E055CD8A0D0EF29F0D2EF29F0F4
:1053A000C2EF29F0034A042A04BEDFEF29F00450BB
:1053B00008E10304D8A0DFEF29F0E1EF29F0BEEF08
:1053C00029F01200000E086E840E076E32EC2CF0ED
:1053D00062EC2BF00001ED5107E10A0EEC5DD8B054
:1053E000F4EF29F0F6EF29F0FEEF29F0ECC099F088
:1053F000EDC09AF027EC2AF004EF2AF0ECC099F007
:10540000EDC09AF047EC2AF01200000E126E000E6A
:10541000116E16EF2AF010C003F0046A0EC005F0FA
:105420000FC006F055EC26F0114A122A11500C2438
:10543000D96E12500D20DA6EDF50106E1050D8A4C5
:1054400024EF2AF026EF2AF00BEF2AF0120062EC8C
:105450002BF09B0E00018D6F000E8E6F000E906F73
:10546000020E8F6F320E916F0D0E926F99C093F0F6
:105470009AC094F033EC2BF09B0E086E000E096E70
:10548000000E0B6E020E0A6E59EC28F0120062EC50
:105490002BF09B0E00018D6F000E8E6F000E906F33
:1054A000040E8F6F320E916F0D0E926F99C093F0B4
:1054B0009AC094F033EC2BF09B0E086E000E096E30
:1054C000000E0B6E040E0A6E59EC28F0120016BE88
:1054D00074EF2AF0165006E11504D8B072EF2AF0E6
:1054E00074EF2AF082EF2AF015C017F016C018F0FA
:1054F000171E181E174A182A17C015F018C016F0E4
:1055000086EF2AF015C015F016C016F01200809430
:105510003EEC29F0000E0101956F380E946F29ECD6
:105520002CF03EEC29F0000E0101956F0F0E946FE8
:1055300029EC2CF04BEC2BF0000E0101956F010EC5
:10554000946F29EC2CF04BEC2BF012009F0E056EA3
:10555000FF0E066E200E0310076E000E0410086E7C
:10556000055007260650082208500AE11A0E075C6B
:10557000D8A0BDEF2AF0C0EF2AF0010EC1EF2AF04B
:10558000000E036E046A12009F0E056EFF0E066E7B
:1055900003C007F004C008F0055007260650082293
:1055A00008500AE11A0E075CD8A0D9EF2AF0DCEF08
:1055B0002AF0010EDDEF2AF0000E036E046A1200DD
:1055C000BF0E056EFF0E066E03C007F004C008F0A4
:1055D000055007260650082208500AE11A0E075CFB
:1055E000D8A0F5EF2AF0F8EF2AF0010EF9EF2AF033
:1055F000000E036E046A1200D00E056EFF0E066EDA
:1056000003C007F004C008F0055007260650082222
:1056100008500AE10A0E075CD8A011EF2BF014EF36
:105620002BF0010E15EF2BF0000E036E046A120032
:1056300003C005F004C006F020EF2BF0034A042A53
:1056400003C0D9FF04C0DAFFDF50D8A42AEF2BF043
:105650002CEF2BF01EEF2BF00550035C036E065071
:105660000458046E1200930E0001976F000E986F9D
:105670008DC07BF08EC07CF08FC07DF090C07EF03E
:1056800091C07FF092C080F0970E816F000E826F04
:105690008DEC23F01200936880968082808468EC01
:1056A00029F0809458EF2BF0808468EC29F08094E6
:1056B00081BE5DEF2BF05FEF2BF054EF2BF0000E6F
:1056C000936E12009368809680828084BAEC29F0F1
:1056D00080946FEF2BF08084BAEC29F0809481BE27
:1056E00074EF2BF076EF2BF06BEF2BF0000E936E38
:1056F00012009E9CC30EC216C19AC198C150F00BF5
:105700000E09C16EC08EC050C70B1009C06EC050CC
:10571000F80B0409C06EC280C28212009E9CC30EA8
:10572000C216C19AC198C150F00B0E09C16EC08E4D
:10573000C050C70B1009C06EC050F80B0409C06EF2
:10574000C280C282120003500502F3CF07F0F4CFEB
:1057500008F003500602F350082604500502F350E7
:10576000082607C003F008C004F01200000E086EFF
:10577000CB0E076E32EC2CF062EC2BF0F8C099F0F7
:1057800000019A6B27EC2AF01200000E086EC90E79
:10579000076E32EC2CF062EC2BF0EAC099F0EBC013
:1057A0009AF047EC2AF01200000E086E8D0E076E7C
:1057B00032EC2CF062EC2BF0FEC099F0FFC09AF0B6
:1057C00047EC2AF012000B0ECF6EDC0ECE6ECD90A1
:1057D000CD9CCD92CD96CD8ECF0ECD16CD80120024
:1057E0000B0ED76EDC0ED66ED59ED59CD59AD5966F
:1057F000D580D582D5941200F90ECB6E070ECA6EF5
:105800007C0EBE6E2C0EBD6E000ECC6ECA841200D5
:1058100006009EAC0EEF2CF010EF2CF012EF2CF0E7
:1058200082EC25F05D9211000101946F94C181FF1B
:1058300080868092808468EC29F080941200076E44
:1058400007C081FF808680928084BAEC29F0809422
:10585000120094C181FF80968092808468EC29F0C8
:105860008094120007C081FF809680928084BAECF9
:1058700029F080941200A190050EBA6EB19CB196E9
:0A588000E3EC2BF012000A00120006
:020000040020DA
:08000000FFFFFFFFFFFFFFFF00
:020000040030CA
:0E000000FF081F1EFF8081FF0FC00FE00F40A2
:00000001FF
